:020000040000FA
:060000000A128A11FC2F18
:100F0000831603130810881008158815872F0330DF
:100F1000F2008A30F1005530F000F00B8D2FF10B0C
:100F20008D2FF20B8D2F942F83120313081488102A
:100F30000330F2008A30F1005530F000F00B9E2FA4
:100F4000F10B9E2FF20B9E2FA52F83120313081077
:100F50008814081DAC2FAD2FD02F0630F2001330AF
:100F6000F100AD30F000F00BB32FF10BB32FF20B0B
:100F7000B32FBA2F83120313081488100630F2001F
:100F80001330F100AD30F000F00BC42FF10BC42F83
:100F9000F20BC42FCB2F8312031308108814D02F09
:100FA000881DD32FD42F872F0630F2001330F10085
:100FB000AD30F000F00BDA2FF10BDA2FF20BDA2F55
:100FC000E12F83120313081488100630F200133047
:100FD000F100AD30F000F00BEB2FF10BEB2FF20B2B
:100FE000EB2FF22F8312031308108814872F872FFB
:100FF000872F0A128A11002883010A128A11802F72
:02400E00D4EFED
:00000001FF
